{
  "_format": "hh-sol-artifact-1",
  "contractName": "NftWarranty",
  "sourceName": "contracts/NftWarranty.sol",
  "abi": [
    {
      "inputs": [
        {
          "internalType": "string",
          "name": "nftName",
          "type": "string"
        },
        {
          "internalType": "string",
          "name": "nftShort",
          "type": "string"
        }
      ],
      "stateMutability": "nonpayable",
      "type": "constructor"
    },
    {
      "anonymous": false,
      "inputs": [
        {
          "indexed": true,
          "internalType": "address",
          "name": "owner",
          "type": "address"
        },
        {
          "indexed": true,
          "internalType": "address",
          "name": "approved",
          "type": "address"
        },
        {
          "indexed": true,
          "internalType": "uint256",
          "name": "tokenId",
          "type": "uint256"
        }
      ],
      "name": "Approval",
      "type": "event"
    },
    {
      "anonymous": false,
      "inputs": [
        {
          "indexed": true,
          "internalType": "address",
          "name": "owner",
          "type": "address"
        },
        {
          "indexed": true,
          "internalType": "address",
          "name": "operator",
          "type": "address"
        },
        {
          "indexed": false,
          "internalType": "bool",
          "name": "approved",
          "type": "bool"
        }
      ],
      "name": "ApprovalForAll",
      "type": "event"
    },
    {
      "anonymous": false,
      "inputs": [
        {
          "indexed": true,
          "internalType": "address",
          "name": "previousOwner",
          "type": "address"
        },
        {
          "indexed": true,
          "internalType": "address",
          "name": "newOwner",
          "type": "address"
        }
      ],
      "name": "OwnershipTransferred",
      "type": "event"
    },
    {
      "anonymous": false,
      "inputs": [
        {
          "indexed": true,
          "internalType": "address",
          "name": "from",
          "type": "address"
        },
        {
          "indexed": true,
          "internalType": "address",
          "name": "to",
          "type": "address"
        },
        {
          "indexed": true,
          "internalType": "uint256",
          "name": "tokenId",
          "type": "uint256"
        }
      ],
      "name": "Transfer",
      "type": "event"
    },
    {
      "stateMutability": "payable",
      "type": "fallback"
    },
    {
      "inputs": [
        {
          "internalType": "address",
          "name": "to",
          "type": "address"
        },
        {
          "internalType": "uint256",
          "name": "tokenId",
          "type": "uint256"
        }
      ],
      "name": "approve",
      "outputs": [],
      "stateMutability": "nonpayable",
      "type": "function"
    },
    {
      "inputs": [
        {
          "internalType": "address",
          "name": "owner",
          "type": "address"
        }
      ],
      "name": "balanceOf",
      "outputs": [
        {
          "internalType": "uint256",
          "name": "",
          "type": "uint256"
        }
      ],
      "stateMutability": "view",
      "type": "function"
    },
    {
      "inputs": [],
      "name": "baseTokenURI",
      "outputs": [
        {
          "internalType": "string",
          "name": "",
          "type": "string"
        }
      ],
      "stateMutability": "view",
      "type": "function"
    },
    {
      "inputs": [
        {
          "internalType": "uint256",
          "name": "tokenId",
          "type": "uint256"
        }
      ],
      "name": "burn",
      "outputs": [],
      "stateMutability": "nonpayable",
      "type": "function"
    },
    {
      "inputs": [],
      "name": "burn_token",
      "outputs": [
        {
          "internalType": "uint256",
          "name": "",
          "type": "uint256"
        }
      ],
      "stateMutability": "view",
      "type": "function"
    },
    {
      "inputs": [
        {
          "internalType": "bytes",
          "name": "",
          "type": "bytes"
        }
      ],
      "name": "checkUpkeep",
      "outputs": [
        {
          "internalType": "bool",
          "name": "upkeepNeeded",
          "type": "bool"
        },
        {
          "internalType": "bytes",
          "name": "",
          "type": "bytes"
        }
      ],
      "stateMutability": "view",
      "type": "function"
    },
    {
      "inputs": [
        {
          "internalType": "uint256",
          "name": "tokenId",
          "type": "uint256"
        }
      ],
      "name": "getApproved",
      "outputs": [
        {
          "internalType": "address",
          "name": "",
          "type": "address"
        }
      ],
      "stateMutability": "view",
      "type": "function"
    },
    {
      "inputs": [
        {
          "internalType": "uint256",
          "name": "tokenId",
          "type": "uint256"
        }
      ],
      "name": "getWarrantyduration",
      "outputs": [
        {
          "internalType": "uint256",
          "name": "",
          "type": "uint256"
        }
      ],
      "stateMutability": "view",
      "type": "function"
    },
    {
      "inputs": [],
      "name": "interval",
      "outputs": [
        {
          "internalType": "uint256",
          "name": "",
          "type": "uint256"
        }
      ],
      "stateMutability": "view",
      "type": "function"
    },
    {
      "inputs": [
        {
          "internalType": "address",
          "name": "owner",
          "type": "address"
        },
        {
          "internalType": "address",
          "name": "operator",
          "type": "address"
        }
      ],
      "name": "isApprovedForAll",
      "outputs": [
        {
          "internalType": "bool",
          "name": "",
          "type": "bool"
        }
      ],
      "stateMutability": "view",
      "type": "function"
    },
    {
      "inputs": [],
      "name": "lastTimeStamp",
      "outputs": [
        {
          "internalType": "uint256",
          "name": "",
          "type": "uint256"
        }
      ],
      "stateMutability": "view",
      "type": "function"
    },
    {
      "inputs": [],
      "name": "name",
      "outputs": [
        {
          "internalType": "string",
          "name": "",
          "type": "string"
        }
      ],
      "stateMutability": "view",
      "type": "function"
    },
    {
      "inputs": [],
      "name": "owner",
      "outputs": [
        {
          "internalType": "address",
          "name": "",
          "type": "address"
        }
      ],
      "stateMutability": "view",
      "type": "function"
    },
    {
      "inputs": [
        {
          "internalType": "uint256",
          "name": "tokenId",
          "type": "uint256"
        }
      ],
      "name": "ownerOf",
      "outputs": [
        {
          "internalType": "address",
          "name": "",
          "type": "address"
        }
      ],
      "stateMutability": "view",
      "type": "function"
    },
    {
      "inputs": [
        {
          "internalType": "bytes",
          "name": "performData",
          "type": "bytes"
        }
      ],
      "name": "performUpkeep",
      "outputs": [],
      "stateMutability": "nonpayable",
      "type": "function"
    },
    {
      "inputs": [],
      "name": "receiveEther",
      "outputs": [],
      "stateMutability": "payable",
      "type": "function"
    },
    {
      "inputs": [],
      "name": "renounceOwnership",
      "outputs": [],
      "stateMutability": "nonpayable",
      "type": "function"
    },
    {
      "inputs": [
        {
          "internalType": "address payable",
          "name": "to",
          "type": "address"
        },
        {
          "internalType": "string",
          "name": "uri",
          "type": "string"
        }
      ],
      "name": "safeMint",
      "outputs": [],
      "stateMutability": "payable",
      "type": "function"
    },
    {
      "inputs": [
        {
          "internalType": "address",
          "name": "from",
          "type": "address"
        },
        {
          "internalType": "address",
          "name": "to",
          "type": "address"
        },
        {
          "internalType": "uint256",
          "name": "tokenId",
          "type": "uint256"
        }
      ],
      "name": "safeTransferFrom",
      "outputs": [],
      "stateMutability": "nonpayable",
      "type": "function"
    },
    {
      "inputs": [
        {
          "internalType": "address",
          "name": "from",
          "type": "address"
        },
        {
          "internalType": "address",
          "name": "to",
          "type": "address"
        },
        {
          "internalType": "uint256",
          "name": "tokenId",
          "type": "uint256"
        },
        {
          "internalType": "bytes",
          "name": "data",
          "type": "bytes"
        }
      ],
      "name": "safeTransferFrom",
      "outputs": [],
      "stateMutability": "nonpayable",
      "type": "function"
    },
    {
      "inputs": [
        {
          "internalType": "address",
          "name": "operator",
          "type": "address"
        },
        {
          "internalType": "bool",
          "name": "approved",
          "type": "bool"
        }
      ],
      "name": "setApprovalForAll",
      "outputs": [],
      "stateMutability": "nonpayable",
      "type": "function"
    },
    {
      "inputs": [
        {
          "internalType": "bytes4",
          "name": "interfaceId",
          "type": "bytes4"
        }
      ],
      "name": "supportsInterface",
      "outputs": [
        {
          "internalType": "bool",
          "name": "",
          "type": "bool"
        }
      ],
      "stateMutability": "view",
      "type": "function"
    },
    {
      "inputs": [],
      "name": "symbol",
      "outputs": [
        {
          "internalType": "string",
          "name": "",
          "type": "string"
        }
      ],
      "stateMutability": "view",
      "type": "function"
    },
    {
      "inputs": [
        {
          "internalType": "uint256",
          "name": "",
          "type": "uint256"
        }
      ],
      "name": "tokenIdToNftInfo",
      "outputs": [
        {
          "internalType": "string",
          "name": "name",
          "type": "string"
        },
        {
          "internalType": "string",
          "name": "description",
          "type": "string"
        },
        {
          "internalType": "uint256",
          "name": "startTime",
          "type": "uint256"
        },
        {
          "internalType": "uint256",
          "name": "EndTime",
          "type": "uint256"
        },
        {
          "internalType": "uint256",
          "name": "duration",
          "type": "uint256"
        },
        {
          "internalType": "bool",
          "name": "soldOnce",
          "type": "bool"
        }
      ],
      "stateMutability": "view",
      "type": "function"
    },
    {
      "inputs": [
        {
          "internalType": "uint256",
          "name": "tokenId",
          "type": "uint256"
        }
      ],
      "name": "tokenURI",
      "outputs": [
        {
          "internalType": "string",
          "name": "",
          "type": "string"
        }
      ],
      "stateMutability": "view",
      "type": "function"
    },
    {
      "inputs": [
        {
          "internalType": "address payable",
          "name": "recipient",
          "type": "address"
        },
        {
          "internalType": "uint256",
          "name": "_interval",
          "type": "uint256"
        }
      ],
      "name": "transferBalance",
      "outputs": [],
      "stateMutability": "nonpayable",
      "type": "function"
    },
    {
      "inputs": [
        {
          "internalType": "address",
          "name": "from",
          "type": "address"
        },
        {
          "internalType": "address",
          "name": "to",
          "type": "address"
        },
        {
          "internalType": "uint256",
          "name": "tokenId",
          "type": "uint256"
        }
      ],
      "name": "transferFrom",
      "outputs": [],
      "stateMutability": "nonpayable",
      "type": "function"
    },
    {
      "inputs": [
        {
          "internalType": "address",
          "name": "newOwner",
          "type": "address"
        }
      ],
      "name": "transferOwnership",
      "outputs": [],
      "stateMutability": "nonpayable",
      "type": "function"
    },
    {
      "stateMutability": "payable",
      "type": "receive"
    }
  ],
  "bytecode": "0x60806040523480156200001157600080fd5b5060405162003d3a38038062003d3a8339818101604052810190620000379190620003b0565b818181600090805190602001906200005192919062000163565b5080600190805190602001906200006a92919062000163565b5050506200008d620000816200009560201b60201c565b6200009d60201b60201c565b50506200049a565b600033905090565b6000600760009054906101000a900473ffffffffffffffffffffffffffffffffffffffff16905081600760006101000a81548173ffffffffffffffffffffffffffffffffffffffff021916908373ffffffffffffffffffffffffffffffffffffffff1602179055508173ffffffffffffffffffffffffffffffffffffffff168173ffffffffffffffffffffffffffffffffffffffff167f8be0079c531659141344cd1fd0a4f28419497f9722a3daafe3b4186f6b6457e060405160405180910390a35050565b828054620001719062000464565b90600052602060002090601f016020900481019282620001955760008555620001e1565b82601f10620001b057805160ff1916838001178555620001e1565b82800160010185558215620001e1579182015b82811115620001e0578251825591602001919060010190620001c3565b5b509050620001f09190620001f4565b5090565b5b808211156200020f576000816000905550600101620001f5565b5090565b6000604051905090565b600080fd5b600080fd5b600080fd5b600080fd5b6000601f19601f8301169050919050565b7f4e487b7100000000000000000000000000000000000000000000000000000000600052604160045260246000fd5b6200027c8262000231565b810181811067ffffffffffffffff821117156200029e576200029d62000242565b5b80604052505050565b6000620002b362000213565b9050620002c1828262000271565b919050565b600067ffffffffffffffff821115620002e457620002e362000242565b5b620002ef8262000231565b9050602081019050919050565b60005b838110156200031c578082015181840152602081019050620002ff565b838111156200032c576000848401525b50505050565b6000620003496200034384620002c6565b620002a7565b9050828152602081018484840111156200036857620003676200022c565b5b62000375848285620002fc565b509392505050565b600082601f83011262000395576200039462000227565b5b8151620003a784826020860162000332565b91505092915050565b60008060408385031215620003ca57620003c96200021d565b5b600083015167ffffffffffffffff811115620003eb57620003ea62000222565b5b620003f9858286016200037d565b925050602083015167ffffffffffffffff8111156200041d576200041c62000222565b5b6200042b858286016200037d565b9150509250929050565b7f4e487b7100000000000000000000000000000000000000000000000000000000600052602260045260246000fd5b600060028204905060018216806200047d57607f821691505b6020821081141562000494576200049362000435565b5b50919050565b61389080620004aa6000396000f3fe6080604052600436106101bb5760003560e01c806370a08231116100ec578063b88d4fde1161008a578063d547cfb711610064578063d547cfb71461060e578063e837e5c314610639578063e985e9c514610664578063f2fde38b146106a1576101c2565b8063b88d4fde1461058c578063c87b56dd146105b5578063d204c45e146105f2576101c2565b8063947a36fb116100c6578063947a36fb1461050357806395d89b411461052e578063a22cb46514610559578063a3912ec814610582576101c2565b806370a0823114610484578063715018a6146104c15780638da5cb5b146104d8576101c2565b806342842e0e11610159578063477b13db11610133578063477b13db1461039e57806356a6d9ef146103e05780636352211e146104095780636e04ff0d14610446576101c2565b806342842e0e1461032357806342966c681461034c5780634585e33b14610375576101c2565b8063095ea7b311610195578063095ea7b31461026957806323b872dd14610292578063240cabb2146102bb5780633f3b3b27146102f8576101c2565b806301ffc9a7146101c457806306fdde0314610201578063081812fc1461022c576101c2565b366101c257005b005b3480156101d057600080fd5b506101eb60048036038101906101e69190612466565b6106ca565b6040516101f891906124ae565b60405180910390f35b34801561020d57600080fd5b506102166107ac565b6040516102239190612562565b60405180910390f35b34801561023857600080fd5b50610253600480360381019061024e91906125ba565b61083e565b6040516102609190612628565b60405180910390f35b34801561027557600080fd5b50610290600480360381019061028b919061266f565b610884565b005b34801561029e57600080fd5b506102b960048036038101906102b491906126af565b61099c565b005b3480156102c757600080fd5b506102e260048036038101906102dd91906125ba565b6109fc565b6040516102ef9190612711565b60405180910390f35b34801561030457600080fd5b5061030d610a82565b60405161031a9190612711565b60405180910390f35b34801561032f57600080fd5b5061034a600480360381019061034591906126af565b610a88565b005b34801561035857600080fd5b50610373600480360381019061036e91906125ba565b610aa8565b005b34801561038157600080fd5b5061039c60048036038101906103979190612791565b610ab4565b005b3480156103aa57600080fd5b506103c560048036038101906103c091906125ba565b610adb565b6040516103d7969594939291906127de565b60405180910390f35b3480156103ec57600080fd5b506104076004803603810190610402919061288b565b610c34565b005b34801561041557600080fd5b50610430600480360381019061042b91906125ba565b610cdb565b60405161043d9190612628565b60405180910390f35b34801561045257600080fd5b5061046d60048036038101906104689190612791565b610d8d565b60405161047b929190612920565b60405180910390f35b34801561049057600080fd5b506104ab60048036038101906104a69190612950565b610dac565b6040516104b89190612711565b60405180910390f35b3480156104cd57600080fd5b506104d6610e64565b005b3480156104e457600080fd5b506104ed610e78565b6040516104fa9190612628565b60405180910390f35b34801561050f57600080fd5b50610518610ea2565b6040516105259190612711565b60405180910390f35b34801561053a57600080fd5b50610543610ea8565b6040516105509190612562565b60405180910390f35b34801561056557600080fd5b50610580600480360381019061057b91906129a9565b610f3a565b005b61058a610f50565b005b34801561059857600080fd5b506105b360048036038101906105ae9190612b19565b610f52565b005b3480156105c157600080fd5b506105dc60048036038101906105d791906125ba565b610fb4565b6040516105e99190612562565b60405180910390f35b61060c60048036038101906106079190612c3d565b6110c7565b005b34801561061a57600080fd5b50610623611106565b6040516106309190612562565b60405180910390f35b34801561064557600080fd5b5061064e611194565b60405161065b9190612711565b60405180910390f35b34801561067057600080fd5b5061068b60048036038101906106869190612c99565b61119a565b60405161069891906124ae565b60405180910390f35b3480156106ad57600080fd5b506106c860048036038101906106c39190612950565b61122e565b005b60007f80ac58cd000000000000000000000000000000000000000000000000000000007bffffffffffffffffffffffffffffffffffffffffffffffffffffffff1916827bffffffffffffffffffffffffffffffffffffffffffffffffffffffff1916148061079557507f5b5e139f000000000000000000000000000000000000000000000000000000007bffffffffffffffffffffffffffffffffffffffffffffffffffffffff1916827bffffffffffffffffffffffffffffffffffffffffffffffffffffffff1916145b806107a557506107a4826112b2565b5b9050919050565b6060600080546107bb90612d08565b80601f01602080910402602001604051908101604052809291908181526020018280546107e790612d08565b80156108345780601f1061080957610100808354040283529160200191610834565b820191906000526020600020905b81548152906001019060200180831161081757829003601f168201915b5050505050905090565b60006108498261131c565b6004600083815260200190815260200160002060009054906101000a900473ffffffffffffffffffffffffffffffffffffffff169050919050565b600061088f82610cdb565b90508073ffffffffffffffffffffffffffffffffffffffff168373ffffffffffffffffffffffffffffffffffffffff161415610900576040517f08c379a00000000000000000000000000000000000000000000000000000000081526004016108f790612dac565b60405180910390fd5b8073ffffffffffffffffffffffffffffffffffffffff1661091f611367565b73ffffffffffffffffffffffffffffffffffffffff16148061094e575061094d81610948611367565b61119a565b5b61098d576040517f08c379a000000000000000000000000000000000000000000000000000000000815260040161098490612e3e565b60405180910390fd5b610997838361136f565b505050565b6109ad6109a7611367565b82611428565b6109ec576040517f08c379a00000000000000000000000000000000000000000000000000000000081526004016109e390612ed0565b60405180910390fd5b6109f78383836114bd565b505050565b600081600e600082815260200190815260200160002060030154421115610a58576040517f08c379a0000000000000000000000000000000000000000000000000000000008152600401610a4f90612f3c565b60405180910390fd5b42600e600085815260200190815260200160002060030154610a7a9190612f8b565b915050919050565b600d5481565b610aa383838360405180602001604052806000815250610f52565b505050565b610ab181611724565b50565b600c54600d5442610ac59190612f8b565b1115610ad757610ad6600a54610aa8565b5b5050565b600e602052806000526040600020600091509050806000018054610afe90612d08565b80601f0160208091040260200160405190810160405280929190818152602001828054610b2a90612d08565b8015610b775780601f10610b4c57610100808354040283529160200191610b77565b820191906000526020600020905b815481529060010190602001808311610b5a57829003601f168201915b505050505090806001018054610b8c90612d08565b80601f0160208091040260200160405190810160405280929190818152602001828054610bb890612d08565b8015610c055780601f10610bda57610100808354040283529160200191610c05565b820191906000526020600020905b815481529060010190602001808311610be857829003601f168201915b5050505050908060020154908060030154908060040154908060050160009054906101000a900460ff16905086565b600047905060008111610c7c576040517f08c379a0000000000000000000000000000000000000000000000000000000008152600401610c739061300b565b60405180910390fd5b8273ffffffffffffffffffffffffffffffffffffffff166108fc829081150290604051600060405180830381858888f19350505050158015610cc2573d6000803e3d6000fd5b50603c82610cd0919061302b565b600c81905550505050565b6000806002600084815260200190815260200160002060009054906101000a900473ffffffffffffffffffffffffffffffffffffffff169050600073ffffffffffffffffffffffffffffffffffffffff168173ffffffffffffffffffffffffffffffffffffffff161415610d84576040517f08c379a0000000000000000000000000000000000000000000000000000000008152600401610d7b906130d1565b60405180910390fd5b80915050919050565b60006060600c54600d5442610da29190612f8b565b1191509250929050565b60008073ffffffffffffffffffffffffffffffffffffffff168273ffffffffffffffffffffffffffffffffffffffff161415610e1d576040517f08c379a0000000000000000000000000000000000000000000000000000000008152600401610e1490613163565b60405180910390fd5b600360008373ffffffffffffffffffffffffffffffffffffffff1673ffffffffffffffffffffffffffffffffffffffff168152602001908152602001600020549050919050565b610e6c611777565b610e7660006117f5565b565b6000600760009054906101000a900473ffffffffffffffffffffffffffffffffffffffff16905090565b600c5481565b606060018054610eb790612d08565b80601f0160208091040260200160405190810160405280929190818152602001828054610ee390612d08565b8015610f305780601f10610f0557610100808354040283529160200191610f30565b820191906000526020600020905b815481529060010190602001808311610f1357829003601f168201915b5050505050905090565b610f4c610f45611367565b83836118bb565b5050565b565b610f63610f5d611367565b83611428565b610fa2576040517f08c379a0000000000000000000000000000000000000000000000000000000008152600401610f9990612ed0565b60405180910390fd5b610fae84848484611a28565b50505050565b6060610fbf8261131c565b6000600660008481526020019081526020016000208054610fdf90612d08565b80601f016020809104026020016040519081016040528092919081815260200182805461100b90612d08565b80156110585780601f1061102d57610100808354040283529160200191611058565b820191906000526020600020905b81548152906001019060200180831161103b57829003601f168201915b505050505090506000611069611a84565b905060008151141561107f5781925050506110c2565b6000825111156110b457808260405160200161109c9291906131bf565b604051602081830303815290604052925050506110c2565b6110bd84611b16565b925050505b919050565b60006110d36008611b7e565b90506110df6008611b8c565b6110e98382611ba2565b6110f38183611bc0565b42600d8190555080600a81905550505050565b6009805461111390612d08565b80601f016020809104026020016040519081016040528092919081815260200182805461113f90612d08565b801561118c5780601f106111615761010080835404028352916020019161118c565b820191906000526020600020905b81548152906001019060200180831161116f57829003601f168201915b505050505081565b600a5481565b6000600560008473ffffffffffffffffffffffffffffffffffffffff1673ffffffffffffffffffffffffffffffffffffffff16815260200190815260200160002060008373ffffffffffffffffffffffffffffffffffffffff1673ffffffffffffffffffffffffffffffffffffffff16815260200190815260200160002060009054906101000a900460ff16905092915050565b611236611777565b600073ffffffffffffffffffffffffffffffffffffffff168173ffffffffffffffffffffffffffffffffffffffff1614156112a6576040517f08c379a000000000000000000000000000000000000000000000000000000000815260040161129d90613255565b60405180910390fd5b6112af816117f5565b50565b60007f01ffc9a7000000000000000000000000000000000000000000000000000000007bffffffffffffffffffffffffffffffffffffffffffffffffffffffff1916827bffffffffffffffffffffffffffffffffffffffffffffffffffffffff1916149050919050565b61132581611c34565b611364576040517f08c379a000000000000000000000000000000000000000000000000000000000815260040161135b906130d1565b60405180910390fd5b50565b600033905090565b816004600083815260200190815260200160002060006101000a81548173ffffffffffffffffffffffffffffffffffffffff021916908373ffffffffffffffffffffffffffffffffffffffff160217905550808273ffffffffffffffffffffffffffffffffffffffff166113e283610cdb565b73ffffffffffffffffffffffffffffffffffffffff167f8c5be1e5ebec7d5bd14f71427d1e84f3dd0314c0f7b2291e5b200ac8c7c3b92560405160405180910390a45050565b60008061143483610cdb565b90508073ffffffffffffffffffffffffffffffffffffffff168473ffffffffffffffffffffffffffffffffffffffff1614806114765750611475818561119a565b5b806114b457508373ffffffffffffffffffffffffffffffffffffffff1661149c8461083e565b73ffffffffffffffffffffffffffffffffffffffff16145b91505092915050565b8273ffffffffffffffffffffffffffffffffffffffff166114dd82610cdb565b73ffffffffffffffffffffffffffffffffffffffff1614611533576040517f08c379a000000000000000000000000000000000000000000000000000000000815260040161152a906132e7565b60405180910390fd5b600073ffffffffffffffffffffffffffffffffffffffff168273ffffffffffffffffffffffffffffffffffffffff1614156115a3576040517f08c379a000000000000000000000000000000000000000000000000000000000815260040161159a90613379565b60405180910390fd5b6115ae838383611ca0565b6115b960008261136f565b6001600360008573ffffffffffffffffffffffffffffffffffffffff1673ffffffffffffffffffffffffffffffffffffffff16815260200190815260200160002060008282546116099190612f8b565b925050819055506001600360008473ffffffffffffffffffffffffffffffffffffffff1673ffffffffffffffffffffffffffffffffffffffff16815260200190815260200160002060008282546116609190613399565b92505081905550816002600083815260200190815260200160002060006101000a81548173ffffffffffffffffffffffffffffffffffffffff021916908373ffffffffffffffffffffffffffffffffffffffff160217905550808273ffffffffffffffffffffffffffffffffffffffff168473ffffffffffffffffffffffffffffffffffffffff167fddf252ad1be2c89b69c2b068fc378daa952ba7f163c4a11628f55a4df523b3ef60405160405180910390a461171f838383611ca5565b505050565b61172d81611caa565b600060066000838152602001908152602001600020805461174d90612d08565b905014611774576006600082815260200190815260200160002060006117739190612317565b5b50565b61177f611367565b73ffffffffffffffffffffffffffffffffffffffff1661179d610e78565b73ffffffffffffffffffffffffffffffffffffffff16146117f3576040517f08c379a00000000000000000000000000000000000000000000000000000000081526004016117ea9061343b565b60405180910390fd5b565b6000600760009054906101000a900473ffffffffffffffffffffffffffffffffffffffff16905081600760006101000a81548173ffffffffffffffffffffffffffffffffffffffff021916908373ffffffffffffffffffffffffffffffffffffffff1602179055508173ffffffffffffffffffffffffffffffffffffffff168173ffffffffffffffffffffffffffffffffffffffff167f8be0079c531659141344cd1fd0a4f28419497f9722a3daafe3b4186f6b6457e060405160405180910390a35050565b8173ffffffffffffffffffffffffffffffffffffffff168373ffffffffffffffffffffffffffffffffffffffff16141561192a576040517f08c379a0000000000000000000000000000000000000000000000000000000008152600401611921906134a7565b60405180910390fd5b80600560008573ffffffffffffffffffffffffffffffffffffffff1673ffffffffffffffffffffffffffffffffffffffff16815260200190815260200160002060008473ffffffffffffffffffffffffffffffffffffffff1673ffffffffffffffffffffffffffffffffffffffff16815260200190815260200160002060006101000a81548160ff0219169083151502179055508173ffffffffffffffffffffffffffffffffffffffff168373ffffffffffffffffffffffffffffffffffffffff167f17307eab39ab6107e8899845ad3d59bd9653f200f220920489ca2b5937696c3183604051611a1b91906124ae565b60405180910390a3505050565b611a338484846114bd565b611a3f84848484611dc7565b611a7e576040517f08c379a0000000000000000000000000000000000000000000000000000000008152600401611a7590613539565b60405180910390fd5b50505050565b606060098054611a9390612d08565b80601f0160208091040260200160405190810160405280929190818152602001828054611abf90612d08565b8015611b0c5780601f10611ae157610100808354040283529160200191611b0c565b820191906000526020600020905b815481529060010190602001808311611aef57829003601f168201915b5050505050905090565b6060611b218261131c565b6000611b2b611a84565b90506000815111611b4b5760405180602001604052806000815250611b76565b80611b5584611f5e565b604051602001611b669291906131bf565b6040516020818303038152906040525b915050919050565b600081600001549050919050565b6001816000016000828254019250508190555050565b611bbc8282604051806020016040528060008152506120bf565b5050565b611bc982611c34565b611c08576040517f08c379a0000000000000000000000000000000000000000000000000000000008152600401611bff906135cb565b60405180910390fd5b80600660008481526020019081526020016000209080519060200190611c2f929190612357565b505050565b60008073ffffffffffffffffffffffffffffffffffffffff166002600084815260200190815260200160002060009054906101000a900473ffffffffffffffffffffffffffffffffffffffff1673ffffffffffffffffffffffffffffffffffffffff1614159050919050565b505050565b505050565b6000611cb582610cdb565b9050611cc381600084611ca0565b611cce60008361136f565b6001600360008373ffffffffffffffffffffffffffffffffffffffff1673ffffffffffffffffffffffffffffffffffffffff1681526020019081526020016000206000828254611d1e9190612f8b565b925050819055506002600083815260200190815260200160002060006101000a81549073ffffffffffffffffffffffffffffffffffffffff021916905581600073ffffffffffffffffffffffffffffffffffffffff168273ffffffffffffffffffffffffffffffffffffffff167fddf252ad1be2c89b69c2b068fc378daa952ba7f163c4a11628f55a4df523b3ef60405160405180910390a4611dc381600084611ca5565b5050565b6000611de88473ffffffffffffffffffffffffffffffffffffffff1661211a565b15611f51578373ffffffffffffffffffffffffffffffffffffffff1663150b7a02611e11611367565b8786866040518563ffffffff1660e01b8152600401611e3394939291906135eb565b602060405180830381600087803b158015611e4d57600080fd5b505af1925050508015611e7e57506040513d601f19601f82011682018060405250810190611e7b919061364c565b60015b611f01573d8060008114611eae576040519150601f19603f3d011682016040523d82523d6000602084013e611eb3565b606091505b50600081511415611ef9576040517f08c379a0000000000000000000000000000000000000000000000000000000008152600401611ef090613539565b60405180910390fd5b805181602001fd5b63150b7a0260e01b7bffffffffffffffffffffffffffffffffffffffffffffffffffffffff1916817bffffffffffffffffffffffffffffffffffffffffffffffffffffffff191614915050611f56565b600190505b949350505050565b60606000821415611fa6576040518060400160405280600181526020017f300000000000000000000000000000000000000000000000000000000000000081525090506120ba565b600082905060005b60008214611fd8578080611fc190613679565b915050600a82611fd191906136f1565b9150611fae565b60008167ffffffffffffffff811115611ff457611ff36129ee565b5b6040519080825280601f01601f1916602001820160405280156120265781602001600182028036833780820191505090505b5090505b600085146120b35760018261203f9190612f8b565b9150600a8561204e9190613722565b603061205a9190613399565b60f81b8183815181106120705761206f613753565b5b60200101907effffffffffffffffffffffffffffffffffffffffffffffffffffffffffffff1916908160001a905350600a856120ac91906136f1565b945061202a565b8093505050505b919050565b6120c9838361213d565b6120d66000848484611dc7565b612115576040517f08c379a000000000000000000000000000000000000000000000000000000000815260040161210c90613539565b60405180910390fd5b505050565b6000808273ffffffffffffffffffffffffffffffffffffffff163b119050919050565b600073ffffffffffffffffffffffffffffffffffffffff168273ffffffffffffffffffffffffffffffffffffffff1614156121ad576040517f08c379a00000000000000000000000000000000000000000000000000000000081526004016121a4906137ce565b60405180910390fd5b6121b681611c34565b156121f6576040517f08c379a00000000000000000000000000000000000000000000000000000000081526004016121ed9061383a565b60405180910390fd5b61220260008383611ca0565b6001600360008473ffffffffffffffffffffffffffffffffffffffff1673ffffffffffffffffffffffffffffffffffffffff16815260200190815260200160002060008282546122529190613399565b92505081905550816002600083815260200190815260200160002060006101000a81548173ffffffffffffffffffffffffffffffffffffffff021916908373ffffffffffffffffffffffffffffffffffffffff160217905550808273ffffffffffffffffffffffffffffffffffffffff16600073ffffffffffffffffffffffffffffffffffffffff167fddf252ad1be2c89b69c2b068fc378daa952ba7f163c4a11628f55a4df523b3ef60405160405180910390a461231360008383611ca5565b5050565b50805461232390612d08565b6000825580601f106123355750612354565b601f01602090049060005260206000209081019061235391906123dd565b5b50565b82805461236390612d08565b90600052602060002090601f01602090048101928261238557600085556123cc565b82601f1061239e57805160ff19168380011785556123cc565b828001600101855582156123cc579182015b828111156123cb5782518255916020019190600101906123b0565b5b5090506123d991906123dd565b5090565b5b808211156123f65760008160009055506001016123de565b5090565b6000604051905090565b600080fd5b600080fd5b60007fffffffff0000000000000000000000000000000000000000000000000000000082169050919050565b6124438161240e565b811461244e57600080fd5b50565b6000813590506124608161243a565b92915050565b60006020828403121561247c5761247b612404565b5b600061248a84828501612451565b91505092915050565b60008115159050919050565b6124a881612493565b82525050565b60006020820190506124c3600083018461249f565b92915050565b600081519050919050565b600082825260208201905092915050565b60005b838110156125035780820151818401526020810190506124e8565b83811115612512576000848401525b50505050565b6000601f19601f8301169050919050565b6000612534826124c9565b61253e81856124d4565b935061254e8185602086016124e5565b61255781612518565b840191505092915050565b6000602082019050818103600083015261257c8184612529565b905092915050565b6000819050919050565b61259781612584565b81146125a257600080fd5b50565b6000813590506125b48161258e565b92915050565b6000602082840312156125d0576125cf612404565b5b60006125de848285016125a5565b91505092915050565b600073ffffffffffffffffffffffffffffffffffffffff82169050919050565b6000612612826125e7565b9050919050565b61262281612607565b82525050565b600060208201905061263d6000830184612619565b92915050565b61264c81612607565b811461265757600080fd5b50565b60008135905061266981612643565b92915050565b6000806040838503121561268657612685612404565b5b60006126948582860161265a565b92505060206126a5858286016125a5565b9150509250929050565b6000806000606084860312156126c8576126c7612404565b5b60006126d68682870161265a565b93505060206126e78682870161265a565b92505060406126f8868287016125a5565b9150509250925092565b61270b81612584565b82525050565b60006020820190506127266000830184612702565b92915050565b600080fd5b600080fd5b600080fd5b60008083601f8401126127515761275061272c565b5b8235905067ffffffffffffffff81111561276e5761276d612731565b5b60208301915083600182028301111561278a57612789612736565b5b9250929050565b600080602083850312156127a8576127a7612404565b5b600083013567ffffffffffffffff8111156127c6576127c5612409565b5b6127d28582860161273b565b92509250509250929050565b600060c08201905081810360008301526127f88189612529565b9050818103602083015261280c8188612529565b905061281b6040830187612702565b6128286060830186612702565b6128356080830185612702565b61284260a083018461249f565b979650505050505050565b6000612858826125e7565b9050919050565b6128688161284d565b811461287357600080fd5b50565b6000813590506128858161285f565b92915050565b600080604083850312156128a2576128a1612404565b5b60006128b085828601612876565b92505060206128c1858286016125a5565b9150509250929050565b600081519050919050565b600082825260208201905092915050565b60006128f2826128cb565b6128fc81856128d6565b935061290c8185602086016124e5565b61291581612518565b840191505092915050565b6000604082019050612935600083018561249f565b818103602083015261294781846128e7565b90509392505050565b60006020828403121561296657612965612404565b5b60006129748482850161265a565b91505092915050565b61298681612493565b811461299157600080fd5b50565b6000813590506129a38161297d565b92915050565b600080604083850312156129c0576129bf612404565b5b60006129ce8582860161265a565b92505060206129df85828601612994565b9150509250929050565b600080fd5b7f4e487b7100000000000000000000000000000000000000000000000000000000600052604160045260246000fd5b612a2682612518565b810181811067ffffffffffffffff82111715612a4557612a446129ee565b5b80604052505050565b6000612a586123fa565b9050612a648282612a1d565b919050565b600067ffffffffffffffff821115612a8457612a836129ee565b5b612a8d82612518565b9050602081019050919050565b82818337600083830152505050565b6000612abc612ab784612a69565b612a4e565b905082815260208101848484011115612ad857612ad76129e9565b5b612ae3848285612a9a565b509392505050565b600082601f830112612b0057612aff61272c565b5b8135612b10848260208601612aa9565b91505092915050565b60008060008060808587031215612b3357612b32612404565b5b6000612b418782880161265a565b9450506020612b528782880161265a565b9350506040612b63878288016125a5565b925050606085013567ffffffffffffffff811115612b8457612b83612409565b5b612b9087828801612aeb565b91505092959194509250565b600067ffffffffffffffff821115612bb757612bb66129ee565b5b612bc082612518565b9050602081019050919050565b6000612be0612bdb84612b9c565b612a4e565b905082815260208101848484011115612bfc57612bfb6129e9565b5b612c07848285612a9a565b509392505050565b600082601f830112612c2457612c2361272c565b5b8135612c34848260208601612bcd565b91505092915050565b60008060408385031215612c5457612c53612404565b5b6000612c6285828601612876565b925050602083013567ffffffffffffffff811115612c8357612c82612409565b5b612c8f85828601612c0f565b9150509250929050565b60008060408385031215612cb057612caf612404565b5b6000612cbe8582860161265a565b9250506020612ccf8582860161265a565b9150509250929050565b7f4e487b7100000000000000000000000000000000000000000000000000000000600052602260045260246000fd5b60006002820490506001821680612d2057607f821691505b60208210811415612d3457612d33612cd9565b5b50919050565b7f4552433732313a20617070726f76616c20746f2063757272656e74206f776e6560008201527f7200000000000000000000000000000000000000000000000000000000000000602082015250565b6000612d966021836124d4565b9150612da182612d3a565b604082019050919050565b60006020820190508181036000830152612dc581612d89565b9050919050565b7f4552433732313a20617070726f76652063616c6c6572206973206e6f7420746f60008201527f6b656e206f776e6572206e6f7220617070726f76656420666f7220616c6c0000602082015250565b6000612e28603e836124d4565b9150612e3382612dcc565b604082019050919050565b60006020820190508181036000830152612e5781612e1b565b9050919050565b7f4552433732313a2063616c6c6572206973206e6f7420746f6b656e206f776e6560008201527f72206e6f7220617070726f766564000000000000000000000000000000000000602082015250565b6000612eba602e836124d4565b9150612ec582612e5e565b604082019050919050565b60006020820190508181036000830152612ee981612ead565b9050919050565b7f57617272616e7479204578706972656400000000000000000000000000000000600082015250565b6000612f266010836124d4565b9150612f3182612ef0565b602082019050919050565b60006020820190508181036000830152612f5581612f19565b9050919050565b7f4e487b7100000000000000000000000000000000000000000000000000000000600052601160045260246000fd5b6000612f9682612584565b9150612fa183612584565b925082821015612fb457612fb3612f5c565b5b828203905092915050565b7f436f6e74726163742062616c616e6365206973207a65726f2e00000000000000600082015250565b6000612ff56019836124d4565b915061300082612fbf565b602082019050919050565b6000602082019050818103600083015261302481612fe8565b9050919050565b600061303682612584565b915061304183612584565b9250817fffffffffffffffffffffffffffffffffffffffffffffffffffffffffffffffff048311821515161561307a57613079612f5c565b5b828202905092915050565b7f4552433732313a20696e76616c696420746f6b656e2049440000000000000000600082015250565b60006130bb6018836124d4565b91506130c682613085565b602082019050919050565b600060208201905081810360008301526130ea816130ae565b9050919050565b7f4552433732313a2061646472657373207a65726f206973206e6f74206120766160008201527f6c6964206f776e65720000000000000000000000000000000000000000000000602082015250565b600061314d6029836124d4565b9150613158826130f1565b604082019050919050565b6000602082019050818103600083015261317c81613140565b9050919050565b600081905092915050565b6000613199826124c9565b6131a38185613183565b93506131b38185602086016124e5565b80840191505092915050565b60006131cb828561318e565b91506131d7828461318e565b91508190509392505050565b7f4f776e61626c653a206e6577206f776e657220697320746865207a65726f206160008201527f6464726573730000000000000000000000000000000000000000000000000000602082015250565b600061323f6026836124d4565b915061324a826131e3565b604082019050919050565b6000602082019050818103600083015261326e81613232565b9050919050565b7f4552433732313a207472616e736665722066726f6d20696e636f72726563742060008201527f6f776e6572000000000000000000000000000000000000000000000000000000602082015250565b60006132d16025836124d4565b91506132dc82613275565b604082019050919050565b60006020820190508181036000830152613300816132c4565b9050919050565b7f4552433732313a207472616e7366657220746f20746865207a65726f2061646460008201527f7265737300000000000000000000000000000000000000000000000000000000602082015250565b60006133636024836124d4565b915061336e82613307565b604082019050919050565b6000602082019050818103600083015261339281613356565b9050919050565b60006133a482612584565b91506133af83612584565b9250827fffffffffffffffffffffffffffffffffffffffffffffffffffffffffffffffff038211156133e4576133e3612f5c565b5b828201905092915050565b7f4f776e61626c653a2063616c6c6572206973206e6f7420746865206f776e6572600082015250565b60006134256020836124d4565b9150613430826133ef565b602082019050919050565b6000602082019050818103600083015261345481613418565b9050919050565b7f4552433732313a20617070726f766520746f2063616c6c657200000000000000600082015250565b60006134916019836124d4565b915061349c8261345b565b602082019050919050565b600060208201905081810360008301526134c081613484565b9050919050565b7f4552433732313a207472616e7366657220746f206e6f6e20455243373231526560008201527f63656976657220696d706c656d656e7465720000000000000000000000000000602082015250565b60006135236032836124d4565b915061352e826134c7565b604082019050919050565b6000602082019050818103600083015261355281613516565b9050919050565b7f45524337323155524953746f726167653a2055524920736574206f66206e6f6e60008201527f6578697374656e7420746f6b656e000000000000000000000000000000000000602082015250565b60006135b5602e836124d4565b91506135c082613559565b604082019050919050565b600060208201905081810360008301526135e4816135a8565b9050919050565b60006080820190506136006000830187612619565b61360d6020830186612619565b61361a6040830185612702565b818103606083015261362c81846128e7565b905095945050505050565b6000815190506136468161243a565b92915050565b60006020828403121561366257613661612404565b5b600061367084828501613637565b91505092915050565b600061368482612584565b91507fffffffffffffffffffffffffffffffffffffffffffffffffffffffffffffffff8214156136b7576136b6612f5c565b5b600182019050919050565b7f4e487b7100000000000000000000000000000000000000000000000000000000600052601260045260246000fd5b60006136fc82612584565b915061370783612584565b925082613717576137166136c2565b5b828204905092915050565b600061372d82612584565b915061373883612584565b925082613748576137476136c2565b5b828206905092915050565b7f4e487b7100000000000000000000000000000000000000000000000000000000600052603260045260246000fd5b7f4552433732313a206d696e7420746f20746865207a65726f2061646472657373600082015250565b60006137b86020836124d4565b91506137c382613782565b602082019050919050565b600060208201905081810360008301526137e7816137ab565b9050919050565b7f4552433732313a20746f6b656e20616c7265616479206d696e74656400000000600082015250565b6000613824601c836124d4565b915061382f826137ee565b602082019050919050565b6000602082019050818103600083015261385381613817565b905091905056fea26469706673582212206f2d4a84546ea2a52268fc6231ca4d592f9037a1b9d1374b2b2bd0ad463495e464736f6c63430008090033",
  "linkReferences": {},
  "deployedLinkReferences": {}
}